:020000040800F2
:10000000801800200D2500080101000803010008E8
:10001000070100080B0100080F01000800000000A4
:1000200000000000000000000000000013010008B4
:100030001501000800000000170100081901000860
:100040002725000827250008272500082725000860
:100050002725000827250008272500082725000850
:100060002725000827250008272500082725000840
:100070002725000827250008272500082725000830
:100080002725000827250008272500082725000820
:100090002725000827250008272500082725000810
:1000A0002725000827250008272500082725000800
:1000B0002D13000859100008151300082725000803
:1000C00027250008272500082725000827250008E0
:1000D00027250008110E0008CF2400089D240008E1
:1000E0009D2200082725000827250008DFF80CD0EE
:1000F00004F086FB00480047AF0900088018002084
:10010000704700BFFEE700BFFEE700BFFEE700BF8D
:10011000FEE77047704770477047000010B54021F8
:10012000FE4802F0F4FBFE4908604FF40041FB4832
:1001300002F0EDFBFA4948600821FA4802F0E7FBBB
:10014000F74988601021F74802F0E1FBF449C860E4
:100150000421F24802F0DBFBF14908610821EF4875
:1001600002F0D5FBEE4948614FF48051EB4802F0B4
:10017000CEFBEB4988618021E84802F0C8FBE849E2
:10018000C8610846C06850B908460069012806D110
:100190006FF02500E4490860001FE4490860E0486A
:1001A000006950B9DE48C068012806D16FF0290007
:1001B000DD490860001DDD490860D948806848B9FC
:1001C000D748C06830B96FF02400D7490860801F55
:1001D000D6490860D248006948B9D148406930B969
:1001E0006FF02A00D0490860801DD0490860CC48D3
:1001F000806858B9CA48C068012807D16FF01D004F
:10020000C94908606FF02C00C8490860C4484069BB
:1002100058B9C3480069012807D16FF02C00C249C2
:1002200008606FF01D00C1490860BD48406850B9C2
:10023000BB48806838B96FF01B00BB4908606FF09D
:100240002C00BA490860B648406950B9B448806982
:1002500038B96FF02C00B44908606FF01B00B34947
:100260000860AF48406858B9AD488068012807D198
:100270006FF01800AC4908606FF02C00AB490860C3
:10028000A748406901280AD1A548806938B96FF0AC
:100290002C00A54908606FF01800A4490860A04828
:1002A000C06840B99E48006928B96FF029009E498E
:1002B00008609E49086010BD10B54021974802F0C3
:1002C00026FB974908604FF40041944802F01FFB59
:1002D000934948600821934802F019FB90498860CF
:1002E0001021904802F013FB8D49C86004218B480F
:1002F00002F00DFB8A4908610821884802F007FBDB
:10030000874948614FF48051844802F000FB8449DA
:1003100088618021814802F0FAFA8149C861084663
:10032000C06848B908460069012805D134207E49D3
:10033000086030207D4908607948006948B97848EC
:10034000C068012805D130207749086034207749FA
:1003500008607348806840B97148C06828B9352082
:10036000714908602F20714908606D48006940B9E3
:100370006B48406928B92F206B49086035206B49CC
:1003800008606748806848B96548C068012805D199
:100390003720654908602820644908606048406942
:1003A00048B95F480069012805D128205E490860E6
:1003B00037205E4908605A48406840B9584880680C
:1003C00028B9382058490860262058490860544800
:1003D000406940B95248806928B9232052490860D1
:1003E0003820524908604E48406848B94C488068F7
:1003F000012805D138204C4908601E204B4908606F
:1004000047484069012808D14548806928B91E201D
:10041000454908603820454908604148C06838B9F6
:100420003F48006920B934203F4908603F490860CF
:1004300010BD10B54021394802F069FA384908600A
:100440004FF40041354802F062FA3549486008210E
:10045000344802F05CFA324988601021314802F0D9
:1004600056FA2F49C86004212C4802F050FA2C4952
:1004700008610821294802F04AFA294948614FF4E5
:100480008051264802F043FA25498861802123489B
:1004900002F03DFA2249C8610846C06848B90846DA
:1004A0000069012805D13E201F4908603A201F49F4
:1004B00008601B48006948B91948C068012805D17F
:1004C0003A20194908603E2018490860144880689D
:1004D00040B91348C06828B93F2013490860392043
:1004E000124908600E48006940B90D48406928B9B2
:1004F00039200D4908603F200C4908600848806891
:1005000048B90748C068012805D14120064908605C
:100510003220064908600248406909E000080140AD
:1005200030090020000C0140180000201C000020B1
:1005300048B9F8480069012805D13220F649086019
:100540004120F6490860F348406840B9F1488068A6
:1005500028B94220F04908603020F0490860ED4891
:10056000406940B9EB48806928B92D20EA49086004
:100570004220EA490860E748406848B9E548806891
:10058000012805D14220E44908602820E349086099
:10059000E0484069012808D1DE48806928B9282050
:1005A000DD4908604220DD490860DA48C06838B992
:1005B000D848006920B93E20D7490860D74908606B
:1005C00010BD10B5D648D749096850F82100332826
:1005D00027D1D349D3480068401C51F82000332864
:1005E0001FD1D0480068801C51F82000332818D053
:1005F0000020CD49086000BFFFF71BFFCA48006814
:100600004628F9DB0020C849086000BFFFF754FE08
:10061000C54800680A28F9DBC2480068401CC14987
:100620000860BF48BF49096850F82100332824D129
:10063000BB49BC480068401C51F8200033281CD13D
:10064000B8480068801C51F82000332815D1B548FF
:100650000068C01C51F8200033280ED00020B24999
:10066000086000BFFFF7E5FEAF480068A328F9DB8C
:10067000AC480068801CAB490860A948A9490968D2
:1006800050F8210033282BD1A549A6480068401C0A
:1006900051F82000332823D1A2480068801C51F86B
:1006A000200033281CD19F480068C01C51F820004E
:1006B000332815D19B480068001D51F820003328CD
:1006C0000ED000209849086000BFFFF7B2FE9648A0
:1006D0000068F428F9DB93480068C01C9149086061
:1006E0008F489049096850F82100332833D18C494C
:1006F0008C480068401C51F8200033282BD18948D1
:100700000068801C51F82000332824D185480068F7
:10071000C01C51F8200033281DD182480068001DFC
:1007200051F82000332816D17E480068401D51F84A
:10073000200033280FD000207B49086000BFFFF75E
:1007400078FE79480068B0F5BC7FF8DB7548006832
:10075000001D7449086072487249096850F8210008
:10076000332833D16E496F480068401C51F820008F
:1007700033282BD16B480068801C51F820003328A7
:1007800024D168480068C01C51F8200033281DD1CE
:1007900064480068001D51F82000332816D16148D4
:1007A0000068401D51F8200033280FD100205E4919
:1007B000086000BFFFF73DFE5B480068B0F5CB7FE7
:1007C000F8DD58480068401D5649086054485549AE
:1007D000096850F82100332816D151495148006862
:1007E000401C51F8200032280ED100204E490860EC
:1007F00001E0FFF71EFE4C4800686428F9DB494819
:100800000068401C4749086045484649096850F857
:100810002100303806282DD2DFE800F0032D56885D
:100820009E9F00204049086004E014203A49086077
:100830003A4908603C4800680228F6DD00203A4941
:10084000086006E06FF0270033490860282033492C
:100850000860354800681D28F4DB00203249086034
:1008600004E000202C4908602C4908602E480068EC
:100870000F28F6DB75E000202B49086004E0142007
:100880002549086025490860274800680228F6DDE8
:1008900000202549086005E028201F4908604042E3
:1008A0001E490860204800681C28F5DB00201E490E
:1008B000086004E0002018490860184908601A48D8
:1008C00000680F28F6DB4CE000201749086001E0C3
:1008D000FFF7AFFD144800681E28F9DB002012491D
:1008E000086005E028200C49086040420B49086078
:1008F0000D4800683628F5DB00200B49086004E04D
:1009000000200549086005490860074800680F286D
:10091000F6DB26E030090020180000201C00002033
:100920005804002074000020700000200020384986
:10093000086001E0FFF77DFD354800681E28F9DBFF
:1009400001E0FFF7B9FC33480068012803D13148C2
:10095000C0690128F5D004E003E00021084600F05A
:1009600014FD00BF2C480068401C2B49086010BDD6
:1009700008B50121102002F0F3F949F2DC00ADF8CE
:10098000000048208DF803006946244801F02CFF40
:100990000121102002F0E4F91A20ADF800004820EF
:1009A0008DF8030069461E4801F01EFF08BD00F0E7
:1009B00075FA00F0A5FA00F027F94FF4E13000F0E5
:1009C000E9F94FF4966001F028FD00F087F900F096
:1009D000E5FB00F030FC002141F61F4000F04EFD29
:1009E00001F037FB00F0BDFE01F0C6FB00F0B2FCE9
:1009F00041F61F41642000F095FDFFF7B9FF05E0C7
:100A0000012000F08EFA322006490860F8E7000065
:100A10007000002030090020740000200008014010
:100A2000000C0140180000200CB50020019000903F
:100A30006C48006840F480306A49086000BF69482B
:100A4000006800F4003000900198401C019000986C
:100A500018B90198B0F5A06FF1D16248006800F4B0
:100A6000003010B10120009001E0002000900098BB
:100A7000012843D15C48006840F010005A490860E2
:100A80000846006820F0030008600846006840F04F
:100A90000200086053484068524948600846406870
:100AA00048600846406840F48060486008464068F6
:100AB00020F47C1048600846406840F4E810486024
:100AC0000846006840F08070086000BF4548006834
:100AD00000F000700028F9D04248406820F0030080
:100AE000404948600846406840F00200486000BF46
:100AF0003C48406800F00C000828F9D10CBD10B546
:100B0000FFF792FF10BD10B53648006840F00100B5
:100B10003449086008464068344908403149486013
:100B200008460068324908402E49086008460068B7
:100B300020F4802008600846406820F4FE004860E9
:100B40004FF41F008860FFF7DAFF4FF0006029497B
:100B5000086010BD10B5002100200022214B5B6809
:100B600003F00C0121B1042906D0082928D107E09F
:100B7000214B224C236027E01F4B204C236023E0B5
:100B8000184B5B6803F47010164B5B6803F48032FB
:100B9000022303EB904022B9194B4343174C2360C7
:100BA0000DE0104B5B6803F4003323B1144B434357
:100BB000124C236003E0104B4343104C236003E0CE
:100BC0000D4B0E4C236000BF00BF064B5B68C3F3A8
:100BD00003130C4CE15C094B1B68CB40074C2360B2
:100BE00010BD000000100240002002400000FFF88D
:100BF000FFFFF6FE08ED00E000127A008000002002
:100C000000093D008400002010B56FF0040001F0E1
:100C1000DEFC2E4800682E49B0FBF1F02D4908702B
:100C20000846007800EB4001C1EBC0104FF6FF71A1
:100C300001EAC0002849088010BD0146254A127803
:100C40004A434FF0E0235A6100229A611A46126922
:100C500042F001021A6100BF4FF0E022106900F07B
:100C600001021AB100F48032002AF5D04FF0E022E0
:100C7000126922F001024FF0E0231A6100229A610A
:100C800070470146144A12884A434FF0E0235A61E4
:100C900000229A611A46126942F001021A6100BFED
:100CA0004FF0E022106900F001021AB100F4803226
:100CB000002AF5D04FF0E022126922F001024FF035
:100CC000E0231A6100229A61704700008000002032
:100CD00000127A00940000209600002008B54FF41E
:100CE000A06001F025FC17208DF8000001208DF890
:100CF00001008DF802008DF80300684601F01DFC2C
:100D000028208DF8000001208DF8010002208DF8C8
:100D1000020001208DF80300684601F00EFC262039
:100D20008DF8000000208DF8010001208DF80200F0
:100D30008DF80300684601F000FC27208DF80000C4
:100D400000208DF8010001208DF802008DF80300CD
:100D5000684601F0F2FB1D208DF8000000208DF8A0
:100D6000010003208DF8020001208DF80300684681
:100D700001F0E3FB08BD000000BF704700BF434A1D
:100D8000128802F04002002AF9D0C2B23F4B1B1D6C
:100D90001A80704710B586B00446012144F2050060
:100DA00001F0DEFF4FF40070ADF8140003208DF861
:100DB000160018208DF8170005A9354801F014FD1C
:100DC0004FF48060ADF8140004208DF8170005A9D9
:100DD0002F4801F009FD01940020ADF80800ADF89E
:100DE0000A00ADF80C00ADF810000C20ADF80E00B4
:100DF00001A9264802F069FF012240F2255123484B
:100E000002F0FBFF0121214802F0EBFF06B010BD0C
:100E100010B540F225511D4803F0D4F810B31B481B
:100E200003F050F8C4B21B48007800F08000C8B945
:100E30001848007800F0400060B10A2C03D0002070
:100E40001449087020E01348007840F080001149F0
:100E5000087019E00D2C06D10E48007840F04000D3
:100E60000C49087010E00B48007800F03F000A4978
:100E70000C5408480078401C064908700846007861
:100E80003F2801DD0020087010BD0000003801403F
:100E9000000801409C0000205009002008B50121F5
:100EA000102001F05DFF4FF40040ADF8000010206D
:100EB0008DF8030003208DF8020069460C4801F00C
:100EC00093FC08BD18B900210A4A11600FE00A49D5
:100ED0000968491C084A1160814208D1054909681E
:100EE000C943064AC2F8BC110021034A1160704789
:100EF00000100140BC012242A0000020000022425C
:100F000008B50121102001F02BFF4FF48040ADF80F
:100F1000000048208DF803006946134801F064FC86
:100F200008BD10B5044611480068401C0F49086010
:100F30004FF480410C4801F0EAFC90B91420FFF70F
:100F4000A0FE00BF4FF48041074801F0E0FC0028FC
:100F5000F8D007480068401C054908601420FFF7D6
:100F600090FE002010BD000000100140A4000020F1
:100F7000600000202DE9F05F04460D46281B7249F1
:100F800008600846006803F0B1FA83466F480168BC
:100F9000584603F0B3F880466B4909686C4A1268FA
:100FA000881A03F0A3FA83466A480168584603F09A
:100FB000A5F88146414603F049F8074666480068AF
:100FC00003F094FA8246394603F040F8064603F0EF
:100FD000B9FA614908605C4800685D4908605E488C
:100FE0000068BDE8F09F2DE9F05F04460D46281B20
:100FF0005A4908600846006803F078FA8346534867
:101000000168584603F07AF8804654490968544A02
:101010001268881A03F06AFA83464E4801685846F7
:1010200003F06CF88146414603F010F807464D483E
:10103000006803F05BFA8246394603F007F806467B
:1010400003F080FA47490860444800684449086052
:1010500044480068BDE8F09F10B50121424802F005
:10106000DCFD002868D001213F4802F0E7FD402167
:101070003E4801F04CFC3E4908604FF400413B48BB
:1010800001F045FC3A49486008213A4801F03FFC2C
:10109000374988601021374801F039FC3449C8606D
:1010A0000421324801F033FC3149086108212F48FE
:1010B00001F02DFC2E4948614FF480512B4801F07E
:1010C00026FC2B4988618021284801F020FC284912
:1010D000C86129480068401C274908602748006803
:1010E000401C2649086001F061F8022000F0EDF88C
:1010F000404223490860042000F0E7F821490860D5
:10110000214801681F480068FFF76DFF1F4908600C
:101110001F4801681A480068FFF72CFF1D49086046
:1011200000F066F91C48006800F085F9194801686C
:101130001648006800F029F910BD4218124B1A60D9
:10114000421A134B1A607047C8000020B0000020FC
:10115000D0000020AC000020CC000020BC0000200B
:10116000C4000020C000002000040040000801402E
:1011700030090020000C0140B40000207000002065
:101180000C000020080000201800002010000020A3
:101190001C000020140000200000002000B587B0D3
:1011A0000121084601F0E9FD0121042001F0D8FDEC
:1011B0000320ADF8000004208DF803006946614863
:1011C00001F012FB04A802F02FFA0020ADF8100085
:1011D0004FF6FF70ADF814000020ADF81600ADF822
:1011E000120004A94FF0804001F0F2FE00231A46DD
:1011F00003214FF0804002F0FAFA01A802F027FA2A
:101200000A20ADF80C0001A9400702F074F9012191
:10121000880702F0FFFC01221146900702F04FFA06
:1012200000214FF0804002F0C3FC0121880702F04A
:101230002BFA07B000BD00B587B00121042001F0F2
:101240009CFD0121082001F08BFDC020ADF80000BD
:1012500004208DF8030069463B4801F0C5FA04A854
:1012600002F0E2F90020ADF810004FF6FF70ADF883
:1012700014000020ADF81600ADF8120004A93348A0
:1012800001F0A6FE00231A460321304802F0AFFA0F
:1012900001A802F0DCF90A20ADF80C0001A92B48E6
:1012A00002F029F90121294802F0B4FC012211467B
:1012B000264802F004FA0021244802F079FC0121BA
:1012C000224802F0E1F907B000BD0146022904D02E
:1012D00003290BD0042919D10FE04FF08042928CE2
:1012E00010B200224FF080439A8411E0184A12880D
:1012F00010B20022164B1A800AE0144A24321288D7
:1013000010B20022114B24331A8001E0002000BFEC
:1013100000BF70470D48103000880C48103000881E
:1013200020F0010009491031088070474FF08040DB
:10133000008A4FF08040008A20F001004FF0804189
:101340000882704700080140000C0140000800407E
:101350002404004008B50121082001F001FD4FF4EC
:101360007040ADF8000010208DF8030003208DF8C8
:1013700002006946384801F037FA08BD01460029E5
:1013800001DA484200E00846704700B503460A46C5
:10139000002B07DA01203149086000203049C1F8EC
:1013A000B80106E000202D49086001202C49C1F851
:1013B000B8011846FFF7E2FF2A490880002A08DA38
:1013C000002026490C39086001202549C1F8B401E4
:1013D00007E0012021490C39086000202049C1F8AC
:1013E000B4011046FFF7CAFF1E490C31088000BD4A
:1013F0001D4800681D49884202DA08461A490860FB
:101400001948006841F65831884202DD08461649FD
:101410000860174800681549884202DA08461449EE
:1014200008601348006841F65831884202DD0846DA
:101430000F490860704770B50446204603F0D3F8A2
:1014400005460C4A0C4B03F0E1F804D20020064993
:1014500008600749086070BD000C0140BC81214252
:1014600000802142342C014010000020A8E4FFFF3E
:10147000140000209A9999999999194030B589B02A
:1014800005460C460121C80201F06AFC0121042036
:1014900001F066FC4FF41060ADF8200018208DF8C4
:1014A000230003208DF8220008A91C4801F09CF9B4
:1014B000ADF81850ADF814400020ADF81A00ADF8A2
:1014C000160005A9164801F083FD6020ADF8040060
:1014D0000120ADF806000020ADF80A00ADF80C00C0
:1014E00001A90F4801F0B1FD01A90D4801F087FEE7
:1014F00001210B4802F0D4F80821094802F0F4F960
:101500000821074802F00FFA0121054802F0BCF952
:101510000121034802F0B8F809B030BD00080140CD
:10152000002C01403EB505460C460121022001F089
:1015300024FCADF80450ADF800400020ADF80600E2
:10154000ADF802006946064801F042FD0122412142
:10155000034802F0B4F80121014802F095F83EBDBD
:101560000004004010B54FF48071F84801F0E9F92B
:101570004FF40071F54801F0E4F94FF40071F348BD
:1015800001F0E1F94FF48071F04801F0DCF910BD91
:1015900010B54FF48071ED4801F0D3F94FF40071AC
:1015A000EA4801F0D0F94FF40071E84801F0C9F9B8
:1015B00010BD10B54FF48071E44801F0C2F94FF44A
:1015C0008071E24801F0BFF910BD2DE9F0410546F8
:1015D0002C464FF48071DD4801F0B5F900261CE07F
:1015E000274607F08007802F04D1B900D74801F0C3
:1015F000A8F904E04FF40071D44801F0A4F96006A2
:10160000040E4FF48071D14801F09BF94FF48071C2
:10161000CE4801F098F9701CC6B2082EE0DBBDE898
:10162000F08110B50446FFF79DFF7820FFF7CDFF4E
:10163000FFF7BFFF0020FFF7C8FFFFF7BAFF204604
:10164000FFF7C3FFFFF7B5FFFFF7A2FF10BD10B50F
:101650000446FFF787FF7820FFF7B7FFFFF7A9FFE2
:101660004020FFF7B2FFFFF7A4FF2046FFF7ADFFD2
:10167000FFF79FFFFFF78CFF10BD70B504460D46C6
:101680001DB1E0B2FFF7E3FF02E0E0B2FFF7C9FFF0
:1016900070BD70B50646002418E004F1B0000021CA
:1016A000FFF7EBFF00210846FFF7E7FF00211020BE
:1016B000FFF7E3FF002505E001213046FFF7DDFFDE
:1016C000681CC5B2802DF7DB601CC4B2082CE4DBBB
:1016D00070BD06E041F6650100E0491E0029FCD11D
:1016E000401E0028F6D17047014605E0002001E0C9
:1016F000421CD0B27B28FBDB0A00A1F10101F5D12D
:10170000704770B504460D4605F1B0000021FFF7A3
:10171000B4FF102141EA14100021FFF7AEFF04F0DE
:101720000F000021FFF7A9FF70BD10B500218D202B
:10173000FFF7A3FF00211420FFF79FFF0021AF2038
:10174000FFF79BFF10BD10B500218D20FFF795FF1F
:1017500000211020FFF791FF0021AE20FFF78DFF41
:1017600010BD70B5002418E004F1B0000021FFF7AF
:1017700084FF00210846FFF780FF00211020FFF7BB
:101780007CFF002505E001210020FFF776FF681CA3
:10179000C5B2802DF7DB601CC4B2082CE4DB70BD41
:1017A00070B5002418E004F1B0000021FFF765FFD8
:1017B00000210846FFF761FF00211020FFF75DFFC1
:1017C000002505E001210846FFF757FF681CC5B258
:1017D000802DF7DB601CC4B2082CE4DB70BD2DE962
:1017E000F04707460E469046994600250024A8F18A
:1017F0002000C5B27F2F02DD0027B01CC6B2B9F1B0
:10180000100F24D131463846FFF77BFF002408E053
:1018100004EB05114E4A505C0121FFF72EFF601CBE
:10182000C4B2082CF4DB701CC1B23846FFF769FF64
:10183000002409E004EB05110831454A505C012100
:10184000FFF71BFF601CC4B2082CF3DB12E031462B
:101850003846FFF756FF00240AE005EB45013D4AF4
:1018600002EB4101085D0121FFF707FF601CC4B2D4
:10187000062CF2DBBDE8F08710B50246012000E03F
:1018800050430B00A1F10104E1B2F9D110BD2DE9E3
:10189000FF5F074691461E460E9D4FF0000A00244A
:1018A00035E0301B401EC1B20A20FFF7E5FFB9FB4F
:1018B000F0F00A21B0FBF1F201FB1208BAF1000FBF
:1018C00014D1701EA04211DDB8F1000F0CD1AB464F
:1018D00005EBDB71491001FB0471C8B22B462022D5
:1018E0000199FFF77CFF10E04FF0010AAB4605EBD2
:1018F000DB71491001FB0471C8B208F13001CAB2B2
:101900002B460199FFF76BFF00BF601CC4B2B442C5
:10191000C7DBBDE8FF9F2DE9F04105460E461446A2
:101920001F460EE022783B4631462846FFF757FF18
:1019300005F10800C5B2782D02DD0025B01CC6B245
:10194000641C20780028EDD1BDE8F081000C014036
:10195000C04A0008984800082DE9F04180460E462C
:101960001546002731464046FFF7CBFE00240AE02B
:10197000F74A02EB8511085D0121FFF77EFE781C16
:10198000C7B2601CC4B2102CF2DB701CC1B240465E
:10199000FFF7B7FE00240CE06900491CEC4A02EB9B
:1019A0004111085D0121FFF768FE781CC7B2601C79
:1019B000C4B2102CF0DBBDE8F0812DE9F05F0646E3
:1019C0000F4690461C46DDF828A04FF0000BE117AB
:1019D00004EB5171C910A4EBC10131B92046E117E4
:1019E00004EB5171C1F3C70506E02046E11704EB93
:1019F0005171C910491CCDB23D4615E0294630460B
:101A0000FFF77FFEB1460BE059460BF1010B1AF8C8
:101A100001000121FFF731FE09F1010000F0FF098B
:101A2000C145F1DB681CC5B2A542E7DBBDE8F09F0C
:101A30002DE9FF5F86B014461D464FF0010A0020D5
:101A40000390049005904FF00109002600BF8346E3
:101A5000002213462046294602F0D8FD09D285F01F
:101A60000040CDE900402046019902F084FD064681
:101A700004E02046294602F07EFD0646304602F08C
:101A800043FD22462B46CDE9000102F04BFC074600
:101A900088460022AF4B3846414602F046FCCDE96D
:101AA000000102F087FD834607E009EB89004FEA59
:101AB00040090AF1010000F0FF0A0A2096FBF0F04D
:101AC00090FBF9F00028F0D142F2107096FBF0F094
:101AD0000A2190FBF1F201FB1200C0B28DF80C005C
:101AE0004FF47A7096FBF0F090FBF1F201FB1200DC
:101AF000C0B28DF80D00642096FBF0F090FBF1F27F
:101B000001FB1200C0B28DF80E000A2096FBF0F027
:101B100090FBF1F201FB1200C0B28DF80F000A2019
:101B200096FBF0F100FB1160C0B28DF810002E2082
:101B30008DF811004FF47A70BBFBF0F00A21B0FB76
:101B4000F1F201FB12008DF812006420BBFBF0F0F3
:101B5000B0FBF1F201FB12008DF813000A20BBFB71
:101B6000F0F0B0FBF1F201FB12008DF814000A2036
:101B7000BBFBF0F100FB11B08DF8150000211498AB
:101B8000801D03AA1154894608E003A810F8090033
:101B9000303003A901F8090009F10109B9F10A0F70
:101BA000F3DB002213462046294602F02FFD08D21F
:101BB0000AF1010000F0FF0A2D20CAF1050103AA75
:101BC00050542E208DF8110000211498801D03AA76
:101BD0001154CAF1050003A942180C23DDE90610CF
:101BE000FFF799FE0AB0BDE8F09F2DE9F04F89B0EC
:101BF0008246894617469846DDF84CB0012007908A
:101C000000200490059006900124002500BF0026C6
:101C10004FEAC9604FEA10693846414602F0ABFC12
:101C20000546284602F081FC3A464346CDE90001CC
:101C300002F078FBCDE902010022464BDDE902010A
:101C400002F073FBCDE9000102F0B4FC064606E0A9
:101C500004EB840044000798401CC0B207900A209F
:101C6000B5FBF0F0B0FBF4F00028F1D142F21070B7
:101C7000B5FBF0F00A21B0FBF1F201FB12008DF888
:101C800010004FF47A70B5FBF0F0B0FBF1F201FBFD
:101C900012008DF811006420B5FBF0F0B0FBF1F2FA
:101CA00001FB12008DF812000A20B5FBF0F0B0FB2A
:101CB000F1F201FB12008DF813002E208DF81500B3
:101CC0004FF47A70B6FBF0F0B0FBF1F201FB1200BA
:101CD0008DF816006420B6FBF0F0B0FBF1F201FBCA
:101CE00012008DF817000A20B6FBF0F0B0FBF1F2FD
:101CF00001FB12008DF818000A20B6FBF0F100FB82
:101D000011608DF8190000210BF1060004AA11548E
:101D1000002405E004A8005D303004A90855641CC7
:101D20000A2CF7DB2E208DF8150000210BF10600A0
:101D300004AA11541298C0F1050004A942180C23FA
:101D400051464846FFF7E7FD09B0BDE8F08F0000B7
:101D5000D40000200088C3402DE9F04105460F461D
:101D6000164600BF05EB45014906080E3946FFF748
:101D7000C8FC00240BE006F1100101EB4101FB4A15
:101D800002EB4101085D0121FFF777FC641C062C82
:101D9000F1DBBDE8F0812DE9F04105460F4616461E
:101DA00000BF05EB45014906080E3946FFF7A9FCBF
:101DB000002409E006EB4601EC4A02EB4101085D14
:101DC0000121FFF75AFC641C062CF3DBBDE8F0810F
:101DD0002DE9F0470546894616463446002C22DA9E
:101DE0006442642094FBF0F100FB11400A2190FB57
:101DF000F1F0C7B20A2094FBF0F100FB114000F0B3
:101E0000FF080D2249462846FFF7C5FF691CC8B2E6
:101E10003A464946FFF7A0FFA91CC8B242464946C8
:101E2000FFF79AFF20E0642094FBF0F100FB1140E3
:101E30000A2190FBF1F0C7B20A2094FBF0F100FBFD
:101E4000114000F0FF080B2249462846FFF7A3FF88
:101E5000691CC8B23A464946FFF77EFFA91CC8B2C2
:101E600042464946FFF778FFBDE8F0872DE9F04785
:101E700005468A4616463446002C2DDA64420D2269
:101E800051462846FFF787FF0A2094FBF0F100FB3C
:101E90001140C7B20A2094FBF0F00A2190FBF1F246
:101EA00001FB120000F0FF08642094FBF0F000F04A
:101EB000FF09E91CC8B23A465146FFF74DFFA91C7D
:101EC000C8B242465146FFF747FF691CC8B24A46AE
:101ED0005146FFF741FF2BE00B2251462846FFF702
:101EE0005AFF0A2094FBF0F100FB1140C7B20A2010
:101EF00094FBF0F00A2190FBF1F201FB120000F0DC
:101F0000FF08642094FBF0F000F0FF09E91CC8B260
:101F10003A465146FFF720FFA91CC8B24246514637
:101F2000FFF71AFF691CC8B24A465146FFF714FF73
:101F3000BDE8F0872DE9F05F05468B46164634462E
:101F4000002C00DA64424FF47A7094FBF0F0C7B2D0
:101F50004FF47A7094FBF0F100FB1140642190FB88
:101F6000F1F000F0FF08642094FBF0F100FB114059
:101F70000A2190FBF1F000F0FF090A2094FBF0F138
:101F800000FB114000F0FF0A3A4659462846FFF789
:101F9000E3FE691CC8B242465946FFF7DDFEA91CA4
:101FA000C8B24A465946FFF7D7FEE91CC8B25246A6
:101FB0005946FFF7D1FEBDE8F09F2DE9F05F0546D9
:101FC0000E46144642F21070B4FBF0F0C7B242F273
:101FD0001070B4FBF0F100FB11404FF47A71B0FBCC
:101FE000F1F000F0FF080846B4FBF0F100FB1140EF
:101FF0006421B0FBF1F000F0FF096420B4FBF0F1C4
:1020000000FB11400A21B0FBF1FA0A20B4FBF0F109
:1020100000FB114B3A4631462846FFF79DFE691CEE
:10202000C8B242463146FFF797FEA91CC8B24A46DD
:102030003146FFF791FEE91CC8B252463146FFF720
:102040008BFE291DC8B25A463146FFF785FEBDE812
:10205000F09F08B50121092000F082FE01214448CB
:1020600000F093FC4FF44070ADF8000010208DF8A4
:10207000030003208DF8020069463E4800F0B4FBDF
:102080004FF440713B4800F05CFC4FF44870FEF7A1
:10209000F8FD0021AE20FFF7F0FA00210846FFF717
:1020A000ECFA00211020FFF7E8FA00214020FFF7AA
:1020B000E4FA0021B020FFF7E0FA00218120FFF7C9
:1020C000DCFA0021FF20FFF7D8FA0021A120FFF75A
:1020D000D4FA0021A620FFF7D0FA0021A820FFF7AC
:1020E000CCFA00213F20FFF7C8FA0021C820FFF7F3
:1020F000C4FA0021D320FFF7C0FA00210846FFF7F9
:10210000BCFA0021D520FFF7B8FA00218020FFF7A4
:10211000B4FA0021D820FFF7B0FA00210520FFF71C
:10212000ACFA0021D920FFF7A8FA0021F120FFF72F
:10213000A4FA0021DA20FFF7A0FA00211220FFF70D
:102140009CFA0021DB20FFF798FA00213020FFF7EE
:1021500094FA00218D20FFF790FA00211420FFF758
:102160008CFA0021AF20FFF788FA08BD98480008D4
:1021700000023000000C014010B50C2323A2012105
:102180000020FFF7C8FB0C2321A201213C20FFF710
:10219000C2FB0C231FA202210020FFF7BCFB0C2373
:1021A0001EA202213C20FFF7B6FB10BD08B50C2093
:1021B000022300901B48012102685520FFF767FBAE
:1021C0000C20022300901848012102681920FFF713
:1021D0005EFB0C200223009014481946026855202B
:1021E000FFF755FB0C2002230090114819460268A6
:1021F0001920FFF74CFB1420022300900D48032107
:1022000002681920FFF743FB08BD00004C3A0000AC
:10221000523A00004C5F533A00000000525F533ABC
:1022200000000000080000200C0000201800002022
:102230001C000020740000200EB50121092000F0D0
:102240008FFD4FF48060ADF8080010208DF80B0072
:1022500003208DF80A0002A9484800F0C5FA4FF49F
:102260000060ADF8080028208DF80B0002A9434853
:1022700000F0BAFA0B21012000F0CCFB4FF4006013
:10228000009000208DF8040008208DF80500012042
:102290008DF80600684600F0C7F90EBD2DE9FE4F27
:1022A000374800683749B0FBF1F000F0FF0A4FF003
:1022B00000091020344908700A20FEF7BEFC4FF4D4
:1022C000006000F017FA002842D04FF6FF704FF080
:1022D000E021486188610846006940F0010008611A
:1022E00000BF4FF40061254800F011FB0028F8D131
:1022F0004FF0E0208469006920F001004FF0E021F8
:1023000008614FF6FF71081B02F0F9F805464946CF
:1023100001F09CFE8146504602F0F1F81B49019005
:10232000484601F0EBFE0090019901F019FF1849B1
:10233000029001F015FF834602F055F9074600228E
:10234000144B02F064F8054602F078F9124908606F
:102350004FF4006000F0DFF9BDE8FE8F10B54FF4D8
:102360008061064800F0EDFA1420FEF766FC4FF499
:102370008061024800F0E7FA10BD0000000C014047
:102380008000002000127A002E0000200000AA43E6
:1023900000007A4400001D400400002010B586B003
:1023A00004460121042000F0DBFC0121480400F078
:1023B000E4FC0420ADF8140003208DF8160018206A
:1023C0008DF8170005A94A4800F00EFA0820ADF86C
:1023D000140004208DF8170005A9454800F004FA00
:1023E00001940020ADF80800ADF80A00ADF80C002B
:1023F000ADF810000C20ADF80E0001A93D4801F029
:1024000064FC012240F225513A4801F0F6FC01211A
:10241000384801F0E6FC06B010BD10B586B00446A1
:102420000121082000F09CFC0121880400F0A5FC9B
:102430004FF48060ADF8140003208DF816001820CA
:102440008DF8170005A92C4800F0CEF94FF4006074
:10245000ADF8140004208DF8170005A9264800F0F7
:10246000C3F901940020ADF80800ADF80A00ADF8FA
:102470000C00ADF810000C20ADF80E0001A91F48AB
:1024800001F023FC012240F225511C4801F0B5FC6B
:1024900001211A4801F0A5FC06B010BD10B540F2AC
:1024A0002551164801F08EFD10BD412806DB482855
:1024B00004DCA0F14001124A117007E0082802DC98
:1024C0000F49087002E000210D4A1170704710B5E5
:1024D00040F22551074801F075FD38B1074801F079
:1024E000F1FC0849084A126841F8220010BD0000BA
:1024F0000008014000440040000C0140004800403A
:102500002E0000206011002054040020064880475F
:1025100006480047FEE7FEE7FEE7FEE7FEE7FEE7C8
:10252000FEE7FEE7FEE7FEE7070B0008ED00000808
:1025300031490143314A1160704770B500210023D1
:102540000F22C47804B32D4C246804F4E064C4F56D
:10255000E064210AC1F10403CA40447804FA03F19B
:102560008478144021430901254C0678A15504784C
:1025700004F01F050124AC4005786D11AD0005F194
:10258000E025C5F8004109E0047804F01F050124A6
:10259000AC401C4D0678761145F8264070BD1A4AAD
:1025A0000A400243154B1B1F1A60704739B1134A8A
:1025B000121D12680243114B1B1D1A6006E00F4AE0
:1025C000121D126882430D4B1B1D1A6070470428B0
:1025D00008D14FF0E021096941F004014FF0E022F9
:1025E000116107E04FF0E021096921F004014FF08B
:1025F000E0221161704700000000FA050CED00E0D8
:1026000000E400E080E100E080FFFF1F002044497B
:102610000860091D0860091D0860091D086041481F
:102620003F4914310860704700213D498279002AF2
:102630003AD00A46126803689A430B461A600A1D8C
:10264000126803689A430B1D1A60027911440A68E4
:1026500003681A430A60324A0832126803689A43D0
:102660002F4B08331A601A1D126803689A432C4BCB
:102670000C331A604279102A0ED11A1F12680368AF
:102680001A43274B08331A601A1D126803681A434D
:10269000234B0C331A600DE02149427911440A683A
:1026A00003681A430A6005E0027911440A68036866
:1026B0009A430A6070470021016001710C21417149
:1026C0000021817170471649103109680143144A8D
:1026D00010321160704701460020114A143212680E
:1026E0000A400AB1012000E0002070470C49143173
:1026F00008607047014600200022094B1B6803EA6E
:102700000102074B14331B680B4013B10AB10120BF
:1027100000E0002070470249143108607047000053
:1027200000040140FFFF0F0010B50446CC4884426E
:1027300008D10121042000F02DFB0021042000F02D
:1027400029FB46E0C748844208D10121082000F057
:1027500021FB0021082000F01DFB3AE0C248844222
:1027600008D10121102000F015FB0021102000F0FD
:1027700011FB2EE0BD48844208D10121202000F049
:1027800009FB0021202000F005FB22E0B84884422C
:1027900008D10121402000F0FDFA0021402000F086
:1027A000F9FA16E0B348844208D10121802000F0F4
:1027B000F1FA0021802000F0EDFA0AE0AE488442F0
:1027C00007D10121801500F0E5FA0021A01500F0E5
:1027D000E1FA10BD10B50121084600F0DBFA002136
:1027E000012000F0D7FA10BD2DE9F0410246002586
:1027F0000026002000230024002791F803C00CF0DD
:102800000F0591F803C00CF0100CBCF1000F03D0C1
:1028100091F802C04CEA050591F800C0BCF1000F28
:1028200031D0146800202BE04FF0010C0CFA00F3BB
:10283000B1F800C00CEA03069E4220D183004FF09D
:102840000F0C0CFA03F7BC4305FA03FC4CEA040432
:1028500091F803C0BCF1280F06D14FF0010C0CFA1F
:1028600000FCC2F814C00AE091F803C0BCF1480FA4
:1028700005D14FF0010C0CFA00FCC2F810C0401C4E
:102880000828D1D31460B1F800C0BCF1FF0F34DDCB
:10289000546800202EE000F1080C4FF0010808FAFF
:1028A0000CF3B1F800C00CEA03069E4221D183006C
:1028B0004FF00F0C0CFA03F7BC4305FA03FC4CEA8B
:1028C000040491F803C0BCF1280F05D100F1080CF5
:1028D00008FA0CF8C2F8148091F803C0BCF1480F54
:1028E00007D100F1080C4FF0010808FA0CF8C2F803
:1028F0001080401C0828CED35460BDE8F0814FF60C
:10290000FF710180022181700421C170704702466D
:10291000002093680B400BB1012000E000207047BD
:102920000146886880B2704702460020D3680B4099
:102930000BB1012000E0002070470146C86880B25A
:10294000704701617047416170470AB1016100E061
:1029500041617047C16070474FF480320A43826121
:102960008161826182698269704702460020434B1F
:1029700018684FF68073184040EA021008433F4B36
:10298000186070473E49C8617047F0B50A46002399
:1029900000240021002500F00046B6F1004F02D1CE
:1029A000364EF16901E0354E7168C0F3034583B2DC
:1029B00000F44016B6F5401F08D121F070612F4E8B
:1029C000766826F070662D4F7E6012E000F4801667
:1029D000B6F5801F06D1032606FA05F4A14341F09F
:1029E000706106E0460D360103FA06F6B14341F088
:1029F000706122B1460D360103FA06F6314300F04C
:102A00000046B6F1004F02D11C4EF16101E01B4EB1
:102A10007160F0BD30B500228B071C0F0F2303FA45
:102A200004F2164B08338C1053F824309343134CA4
:102A300008348D1044F8253023468C1053F8243088
:102A40008C07240F00FA04F423430C4C08348D1037
:102A500044F8253030BD0A49DC3108607047000079
:102A600000080140000C014000100140001401402A
:102A700000180140001C01400020014000000140FE
:102A800000002042DF48006840F00100DD49086096
:102A900008464068DC490840DA4948600846006852
:102AA000DA490840D74908600846006820F48020C9
:102AB00008600846406820F4FE0048604FF41F009C
:102AC00088607047CF49096821F48031CD4A116090
:102AD0001146096821F480211160B0F5803F03D0D0
:102AE000B0F5802F0ED106E0C649096841F4803167
:102AF000C44A116007E0C349096841F4A021C14AF2
:102B0000116000E000BF00BF704710B50146002211
:102B1000002300204A11012A02D1BA4C236806E0A2
:102B2000022A02D1B74C236A01E0B64C636A01F075
:102B30001F02012494401C400CB1012000E0002041
:102B400010BD38B5002000900024002500BF3120C2
:102B5000FFF7DBFF05460098401C00900098B0F599
:102B6000A06F01D0002DF2D03120FFF7CEFF08B1C9
:102B7000012400E00024204638BD01460020A14A7F
:102B8000106820F0F80040EAC10010607047A049CA
:102B900008607047024600209A4B586820F47C1069
:102BA00042EA01031843974B5860704798490866FA
:102BB000704701460020934A506820F00300084304
:102BC000506070478F48406800F00C007047014625
:102BD00000208C4A506820F0F00008435060704795
:102BE00001460020874A506820F4E06008435060A6
:102BF000704701460020834A506820F4605040EA44
:102C0000C1005060704729B17E4A527A02437D4B21
:102C10005A7204E07B4A527A82437A4B5A72704766
:102C20007B49D8310860704701460020754A5068DA
:102C300020F440400843506070470021714A203220
:102C40001170704A82F82010012802D004280AD19D
:102C500004E001216B4A2032117005E00521694A28
:102C60002032117000E000BF00BF70476949086062
:102C700070476449096A0143624A116270476549B5
:102C800044390860704730B5002100220024002339
:102C90005C4D6D6805F00C0121B1042905D00829AF
:102CA00023D105E05C4D056022E05B4D05601FE02F
:102CB000544D6D6805F47012524D6D6805F4803402
:102CC000022505EB92421CB9544D554305600BE0BB
:102CD0004C4D6D6805F400351DB1504D55430560F0
:102CE00002E04D4D5543056002E04B4D056000BFCD
:102CF00000BF444D6D6805F0F0010909484D6B5C5B
:102D00000568DD4045603F4D6D6805F4E061090AE6
:102D1000434D6B5C4568DD4085603A4D6D6805F458
:102D20006051C90A3E4D6B5C4568DD40C560354D5C
:102D30006D6805F44041890B3A4D6B5CC568B5FB85
:102D4000F3F5056130BD29B12E4A526902432D4B7E
:102D50005A6104E02B4A526982432A4B5A617047F8
:102D600029B1284A92690243264B9A6104E0254A18
:102D700092698243234B9A61704729B1214AD269F3
:102D80000243204BDA6104E01E4AD26982431D4BA4
:102D9000DA61704729B11B4AD2680243194BDA60E5
:102DA00004E0184AD2688243164BDA60704729B1B2
:102DB000144A12690243134B1A6104E0114A126962
:102DC0008243104B1A6170471249403908607047BE
:102DD0000F49C86470470B49C87170470948406A79
:102DE00040F0807007494862704701460020054A5C
:102DF00092680A400AB1012000E0002070470149B2
:102E000088727047001002400000FFF8FFFFF6FED6
:102E1000000042428004424200127A0000093D0054
:102E20001C0900202C09002010B50446FE488442ED
:102E300008D10121C014FFF7ADFF0021E014FFF716
:102E4000A9FFC4E0B4F1804F08D101210846FFF783
:102E5000AEFF00210120FFF7AAFFB8E0F34884424B
:102E600008D101210220FFF7A2FF00210220FFF775
:102E70009EFFACE0EE48844208D101210420FFF718
:102E800096FF00210420FFF792FFA0E0E94884426A
:102E900008D101210820FFF78AFF00210820FFF751
:102EA00086FF94E0E448844208D101211020FFF716
:102EB0007EFF00211020FFF77AFF88E0DF48844280
:102EC00008D101212020FFF772FF00212020FFF709
:102ED0006EFF7CE0DA48844208D101214014FFF7FC
:102EE00059FF00216014FFF755FF70E0D548844278
:102EF00009D10121C804FFF74DFF00214FF4002044
:102F0000FFF748FF63E0D048844209D1012108055A
:102F1000FFF740FF00214FF48010FFF73BFF56E022
:102F2000CA48844209D101214805FFF733FF002137
:102F30004FF40010FFF72EFF49E0C548844208D146
:102F400001214020FFF733FF00214020FFF72FFF32
:102F50003DE0C048844208D101218020FFF727FFCF
:102F600000218020FFF723FF31E0BB48844208D1D5
:102F700001218015FFF71BFF0021A015FFF717FFA8
:102F800025E0B648844209D101210804FFF702FF79
:102F900000214FF48030FFF7FDFE18E0B048844276
:102FA00009D101214804FFF7F5FE00214FF400305C
:102FB000FFF7F0FE0BE0AB48844208D10121880402
:102FC000FFF7E8FE00214FF48020FFF7E3FE10BD7D
:102FD00000220288944B98420ED0994B98420BD015
:102FE000B0F1804F08D0914B984205D0904B984259
:102FF00002D0904B984204D14FF68F731A404B8801
:103000001A438D4B984207D08C4B984204D04FF610
:10301000FF431A40CB881A4302808B8883850B8834
:103020000385814B98420BD0854B984208D08B4B3F
:10303000984205D08A4B984202D08A4B984201D1DF
:103040000B7A038601238382704770B50024002227
:103050000023058C4FF6FE7635400584028C83886C
:10306000048B4FF68F752C40B51E2C400D882C43D9
:10307000751E2A400D892A434D882A436A4DA8426D
:103080000BD06F4DA84208D0744DA84205D0744DA6
:10309000A84202D0734DA84213D14FF6F7752A40CB
:1030A0004D892A434FF6FB752A408D882A434FF6F7
:1030B000FF652B404FF6FF552B408D892B43CD8963
:1030C0002B4383800483CD888586028470BD70B5D0
:1030D000002400220023058C4FF6EF76354005844E
:1030E000028C8388048B48F6FF752C404FF6FF4511
:1030F0002C400D884FF6FF7606EA05252C434FF647
:10310000DF752A400D8906EA05152A434D8806EA2F
:1031100005152A43444DA84202D0494DA8421DD16D
:103120004FF67F752A404D894FF6FF7606EA051562
:103130002A434FF6BF752A408D8806EA05152A43B3
:103140004FF6FF352B404FF2FF752B408D8906EA75
:1031500085052B43CD8906EA85052B4383800483AF
:10316000CD880587028470BD70B50024002200233D
:10317000058C4FF6FF6635400584028C8388848B6E
:103180004FF68F752C404FF6FC752C400D882C4364
:103190004FF6FF552A400D894FF6FF7606EA0525C2
:1031A0002A434D8806EA05252A431F4DA84202D02E
:1031B000234DA8421DD14FF2FF752A404D894FF68D
:1031C000FF7606EA05252A434FF6FF352A408D880B
:1031D00006EA05252A434EF6FF752B404DF6FF758E
:1031E0002B408D8906EA05152B43CD8906EA051586
:1031F0002B4383808483CD888587028470BD70B51E
:10320000002200230024058C4EF6FF76354005840D
:10321000038C8488828B48F6FF752A404FF6FF4561
:103220002A400D8820E00000002C014000040040EE
:1032300000080040000C0040001000400014004056
:1032400000340140004C0140005001400054014056
:1032500000180040001C00400020004000400140D9
:1032600000440140004801404FF6FF7606EA05257C
:103270002A434DF6FF752B400D8906EA05352B4391
:103280004D8806EA05352B43FA4DA84202D0FA4D87
:10329000A84208D14BF6FF752C408D894FF6FF767A
:1032A00006EA85152C4384808283CD88A0F840509F
:1032B000038470BD828B4FF2FF331A408283828B6E
:1032C0004FF6FF7303EA01231A4382837047F0B578
:1032D0000C461546002200210026078C4EF6FF7C86
:1032E00007EA0C070784828B018C4FF6FF7707EA09
:1032F000043640F6FF473A404FF6FF7707EA0527C6
:103300003A434FF6FF7707EA03373A43D94FB842BB
:103310000ED0D94FB8420BD0B0F1804F08D0D74F64
:10332000B84205D0D64FB84202D0D64FB84206D1E7
:103330004DF6FF77394046F48057394305E047F6AC
:10334000FF57394044F48057394382830184F0BDEC
:10335000828B4FF6F3731A408283828B0A438283F7
:103360007047F0B50C461546002200210026078C58
:103370004FF6FF6C07EA0C070784828B018C4FF62F
:10338000FF7707EA04264FF60C773A404FF6FF77AF
:1033900007EA03172F433A43B64FB8420ED0B64F51
:1033A000B8420BD0B0F1804F08D0B44FB84205D02E
:1033B000B34FB84202D0B34FB84206D14FF6FF57D1
:1033C000394046F48077394305E04FF2FF573940E2
:1033D00044F48077394382830184F0BD028B4FF23D
:1033E000FF331A400283028B4FF6FF7303EA012377
:1033F0001A4302837047F0B50C461546002200219F
:103400000026078C4FF6EF7C07EA0C070784028B37
:10341000018C4FF6FF7707EA041640F6FF473A4063
:103420004FF6FF7707EA03373A434FF6FF7707EA8D
:1034300005273A438F4FB8420ED08F4FB8420BD07A
:10344000B0F1804F08D08D4FB84205D08C4FB842B4
:1034500002D08C4FB84206D14FF6DF77394046F0A4
:103460001007394305E04FF65F77394044F0100705
:10347000394302830184F0BD028B4FF6F3731A4087
:103480000283028B0A4302837047F0B50C4615464F
:1034900000220021068C4FF6FE773E400684028B08
:1034A000018C4FF60C7632407E1C06EA03162E4342
:1034B0003243704EB0420ED06F4EB0420BD0B0F1DE
:1034C000804F08D06D4EB04205D06D4EB04202D054
:1034D0006C4EB04206D14FF6FD76314044F0010605
:1034E000314305E04FF6F576314044F001063143B3
:1034F00002830184F0BD70B505460C465D488542E7
:103500000ED05D4885420BD0B5F1804F08D05B48A6
:10351000854205D05A48854202D05A48854200D19A
:1035200000E000BF208850B92389A288618828461E
:10353000FFF7ABFFE1882846FFF79EFF25E02088D4
:1035400004280AD12389A28861882846FFF753FFFF
:10355000E1882846FFF742FF17E0208808280AD1B3
:103560002389A28861882846FFF7FBFEE188284668
:10357000FFF7EEFE09E02389A28861882846FFF75D
:10358000A6FEE1882846FFF795FE70BD2DE9F041C3
:1035900005460C4600260127608808B9022600E08F
:1035A0000026A088012801D1022700E001272088F9
:1035B000A0B92389A28861882846FFF766FFE188C1
:1035C0002846FFF759FF23893A4631462846FFF738
:1035D00012FFE1882846FFF701FF13E02389A28844
:1035E00061882846FFF707FFE1882846FFF7F6FEC7
:1035F00023893A4631462846FFF747FFE1882846A7
:10360000FFF73AFFBDE8F0810A884B881A438B88A0
:103610001A43CB881A430B891A434B891A438B8967
:103620001A43A0F8442070474FF6FF7181800021B3
:103630000180C1804180017270470021018041807A
:103640008180C180018141818181C18170470021D8
:1036500001804180012181800021C180018170476A
:103660000021018041808180C1800181418181816F
:1036700070470000002C014000340140000400406D
:1036800000080040000C004021B1028842F0010215
:10369000028004E002884FF6FE731A4002807047F1
:1036A00031B1B0F8442042F40042A0F8442005E0D3
:1036B000B0F84420C2F30E02A0F8442070471AB1BB
:1036C00083890B43838102E083898B438381704725
:1036D0008182704741EA0203A0F8483070471AB16E
:1036E00083890B43838102E083898B438381704705
:1036F00001894FF6F8721140018170470A46002196
:1037000001894FF68F73194011430181704730B51D
:1037100004460D4629462046FFF7F0FF208940F079
:103720000700208130BD2DE9F04104460D461646C4
:103730001F46602D06D13B46012231462046FFF749
:103740005AFE05E03B46012231462046FFF79DFE2A
:1037500029462046FFF7D2FF208940F0070020814C
:10376000BDE8F08130B50C4600210189C9B24FF6A1
:10377000FF7505EA0325154325432943018130BD23
:103780002DE9F04105460E4617469846002443466B
:103790003A4631462846FFF7E5FF2C894FF6F87088
:1037A000044044F007044FF68F70044044F0700466
:1037B0002C81BDE8F081F0B504460D4616461F4643
:1037C0003B46324629462046FFF7CCFF208940F48D
:1037D00080402081F0BD0185828270470A46002129
:1037E00001884FF68F731940114301807047F0B57F
:1037F0000C4615461E460021002200230189028B3B
:10380000038C4FF6F877394021434FF6FC473A4096
:1038100040F201173A434FF6DD773B404FF6FF7712
:1038200007EA06172F433B43018102830384F0BD5F
:103830000A460021018B4FF68F7319401143018313
:1038400070470A460021018B48F6FF7319404FF676
:10385000FF7303EA02231943018370470A460021DC
:10386000818B4FF68F7319401143818370470A464D
:103870000021818B48F6FF7319404FF6FF7303EA6E
:10388000022319438183704721B1028842F08002EC
:10389000028004E002884FF67F731A40028070476E
:1038A00021B1828842F00402828004E082884FF6CF
:1038B000FB731A408280704721B1828842F008026F
:1038C000828004E082884FF6F7731A408280704746
:1038D00021B1828842F00102828004E082884FF6A2
:1038E000FE731A40828070470A460021018B4FF612
:1038F000F77319401143018370470A460021018B79
:103900004FF2FF7319404FF6FF7303EA0223194386
:10391000018370470A460021818B4FF6F7731940E7
:103920001143818370470A460021818B4FF2FF7358
:1039300019404FF6FF7303EA02231943818370474E
:103940000A460021018B4FF6FB7319401143018396
:1039500070470A460021018B4FF6FF3319404FF69E
:10396000FF7303EA02231943018370470A460021CB
:10397000818B4FF6FB7319401143818370470A46D0
:103980000021818B4FF6FF3319404FF6FF7303EA96
:1039900002231943818370470A460021018B4FF6A9
:1039A0007F7319401143018370470A460021018B40
:1039B000C1F30E014FF6FF7303EA0223194301839B
:1039C00070470A460021818B4FF67F7319401143DF
:1039D000818370470A460021818BC1F30E014FF6A7
:1039E000FF7303EA02231943818370470A460021CB
:1039F000018C4FF6FD7319401143018470470A464C
:103A00000021018C4FF6F773194011430184704770
:103A10000A460021018C4FF6DF7319404FF6FF7301
:103A200003EA02131943018470470A460021018CFE
:103A30004FF67F7319404FF6FF7303EA02131943E1
:103A4000018470470A460021018C4FF6FF5319404C
:103A50004FF6FF7303EA02231943018470470A46B5
:103A60000021018C4FF2FF7319404FF6FF7303EAF8
:103A700002231943018470470A460021018C4DF648
:103A8000FF7319404FF6FF7303EA023319430184B1
:103A9000704730B5002301248C40A3B2048C9C43B2
:103AA0000484048C02FA01F5ADB22C43048430BDC9
:103AB00030B5002304248C40A3B2048C9C430484BE
:103AC000048C02FA01F5ADB22C43048430BD70B50C
:103AD0000346002000241846183001258D40ACB262
:103AE0001D8CA5431D8409B1082909D100EB610093
:103AF000056825F0700505600568154305600EE052
:103B00000D1FC5F34E052844056825F4E045056002
:103B100005684FF6FF7606EA02263543056070BD5C
:103B200021B1028842F00202028004E002884FF6CE
:103B3000FD731A400280704721B1028842F00402EE
:103B4000028004E002884FF6FB731A40028070473F
:103B500021B1828842F08002828004E082884FF6A0
:103B60007F731A408280704702884FF6F7731A40BD
:103B7000028002880A430280704782884FF68F7362
:103B80001A40828082880A438280704702894FF6F9
:103B9000F8731A40028102890A4302817047028940
:103BA0004FF67F731A40028102890A4302817047EF
:103BB000818470478185704781867047018770478F
:103BC00081877047A0F84010704702884FF6FF4386
:103BD0001A40028002880A43028070470146888E9C
:103BE00070470146088F70470146888F704701462D
:103BF000B1F8400070470146888C70470146088D37
:103C0000704702460020138A0B400BB1012000E0F0
:103C100000207047CA430282704730B50246002038
:103C200000230024158A05EA0103958905EA0104A9
:103C300013B10CB1012000E0002030BDCA43028264
:103C40007047000010B50446FB48844209D10121A9
:103C50008803FFF79FF800214FF48040FFF79AF8A0
:103C600032E0F648844209D101214804FFF79FF869
:103C700000214FF40030FFF79AF825E0F048844225
:103C800009D101218804FFF792F800214FF4802028
:103C9000FFF78DF818E0EB48844209D10121C804F0
:103CA000FFF785F800214FF40020FFF780F80BE0C4
:103CB000E548844208D101210805FFF778F8002182
:103CC0004FF48010FFF773F810BD2DE9F04786B070
:103CD00005460E460024A24600BFA1460027B08933
:103CE00000B100BF2F462C8A4CF6FF700440F088CC
:103CF00004432C82AC894EF6F3100440B08831891D
:103D00000843718908430443AC81AC8A4FF6FF40F5
:103D10000440B0890443AC8201A8FEF7B4FFC64852
:103D2000874202D1DDF810A001E0DDF80CA0A889DF
:103D300000F4004040B10AEBCA0000EB0A10316801
:103D40004900B0FBF1F807E00AEBCA0000EB0A10EB
:103D500031688900B0FBF1F86420B8FBF0F0040191
:103D60002009642101FB1089A88900F4004040B1BA
:103D7000322000EBC900B0FBF1F000F00700044373
:103D800008E0322000EB09106421B0FBF1F000F0F4
:103D90000F0004432C8106B0BDE8F0874FF41651A4
:103DA000016000218180C18001810C2141810021BD
:103DB0008181704710B502460020108A4FF2FF0340
:103DC00018400B884C8823438C882343CC8823439A
:103DD0001843108210BD0021018041808180C18084
:103DE000704721B1828942F40052828104E08289C5
:103DF0004DF6FF731A4082817047F0B503460024E8
:103E000000260025002040F66A17B94200D100BF05
:103E10001846C1F3421401F01F06012707FA06F500
:103E2000012C01D10C3004E0022C01D1103000E053
:103E300014301AB107682F43076002E00768AF43E8
:103E40000760F0BD1AB1838A0B43838202E0838A44
:103E50008B4383827047028A4FF6F0731A400282C6
:103E6000028A0A430282704782894FF2FF731A4026
:103E7000828182890A438281704721B1828942F01E
:103E80000202828104E082894FF6FD731A4082812A
:103E90007047028A4FF6DF731A400282028A0A4391
:103EA0000282704721B1028A42F48042028204E019
:103EB000028A4BF6FF731A4002827047C1F3080270
:103EC0008280704701468888C0F308007047818966
:103ED00041F0010181817047028BD2B20283028BD3
:103EE00042EA012202837047028B02F47F4202837E
:103EF000028B0A430283704721B1828A42F020027A
:103F0000828204E0828A4FF6DF731A408282704711
:103F100021B1828A42F01002828204E0828A4FF646
:103F2000EF731A408282704721B1828A42F0080200
:103F3000828204E0828A4FF6F7731A4082827047C9
:103F400021B1828942F40042828103E08289C2F376
:103F50000E028281704721B1828A42F4006282821D
:103F600004E0828A4FF2FF731A4082827047828A8D
:103F70004FF6FB731A408282828A0A43828270471C
:103F800021B1828A42F00202828204E0828A4FF6E4
:103F9000FD731A408282704702460020B1F5007F0F
:103FA00000D100BF13880B400BB1012000E00020BE
:103FB000704701F40072B2F5007F00D100BFCA4320
:103FC0000280704770B502460024002300250020BF
:103FD00040F66A16B14200D100BFC1F3421501F0AC
:103FE0001F03012606FA03F3012D02D196893340FF
:103FF00006E0022D02D1168A334001E0968A334052
:104000000C12012606FA04F41688344013B10CB1E0
:10401000012000E0002070BD10B50022002340F612
:104020006A14A14200D100BF0A1201249440A3B235
:10403000DC43048010BD0000003801400044004013
:1040400000480040004C004000500040F0B480EABE
:104050000102D40F4200B2EB410F02D202460846E1
:1040600011464A0042D0C30DDDB2C1F3C752AD1AAA
:10407000202D35DAC1F3160141F4000204B1524299
:10408000C5F1200602FA06F12A411044B3EBD05FD5
:1040900023D0C4B1012DA0EBC35009DCF0BC4FF01C
:1040A000004202EAC352DBB200F5000000F01CBB84
:1040B000400000F1807000EBC350A0F1807040EA36
:1040C000D170490009E0490841EAC071A0EBC35032
:1040D00000F50000400800EBC350F0BC00F0FBBA54
:1040E0006142012202EB4101001BF6E7F0BC704780
:1040F00081F00041AAE780F00040A7E780EA0102D2
:1041000010B502F00043400022D04A001FD0010E3B
:1041100001EB1261C0F35600C2F3560240F40000F6
:1041200042F40002A0FB022000047F39140400D0F6
:10413000401C50EA124001D44000491EC2B20C0695
:1041400004EBD010401C4008802A02D003E000207D
:1041500010BD20F00100002900DA0020184310BD36
:1041600030B480EA010202F0004530F0004221F054
:10417000004013D090B1C30DD40DC2F31601C0F3AB
:104180001600E41A41F4000140F400027D3491422B
:1041900001D3641C00E04900002C02DA30BC00208E
:1041A00070474FF400000023914201D3891A034362
:1041B00040084FEA4101F7D151B1914202D14FF08D
:1041C000004105E002D24FF0010101E06FF0010172
:1041D00003EBC450284430BC00F07DBA2DE9FE4FFB
:1041E000804681EA0300C00F0C46009021F0004198
:1041F00023F00045B8EB0200A94105D24046214614
:1042000090461C460B46024623F00040104347D020
:10421000270DC7F30A00C3F30A510290401A019018
:1042200040286BDAC3F3130040F4801B00989246D9
:1042300020B10023D2EB030A63EB0B0B0198594624
:10424000C0F14002504600F015FA06460D465046B1
:104250005946019A00F02DFA10EB08006141002444
:1042600087EA115284EAE7731A4340D0009A62B396
:10427000019A012A4FEA075215DC001B61EB02018B
:104280004FF0004202EA0752CDE90042001C41F51E
:10429000801132462B4600F064FA03B0BDE8F08F7F
:1042A00040462146F9E7001B61EB0201001C41F585
:1042B000801300185B412018A2F5001747EB03019B
:1042C00040EAD570B6196D4111E06D084FEA360627
:1042D00045EAC0754FEA0752001B61EB0201001C62
:1042E00041F5801149084FEA30000019514132462A
:1042F0002B4603B0BDE8F04F00F024BA009801222D
:1043000040000023D0EB020263EBE07300982146EB
:104310004FEAE074B8EB000061EB0401E9E783F0D9
:1043200000435BE781F0004158E72DE9FE4F81EA49
:10433000030404F0004421F0004100944FF0000B0E
:1043400023F0004350EA01045ED052EA03045BD03C
:10435000C3F30A54C1F30A552C44A4F2F334019474
:10436000A0FB0254C1F3130141F48011C3F3130302
:1043700043F4801301FB024400FB034E840A970AB6
:1043800044EA815447EA8357A4FB076802958D0AE3
:1043900005FB07854FEA932C04FB0C542705029D6F
:1043A0004FEA065847EA1637B5EB08056EEB070CDF
:1043B000870E920E47EA811742EA8312A7FB020199
:1043C000B6EB0B0164EB00042B0D43EA0C335E18D3
:1043D00044EB1C50DA465146E7FB0201C5F31304D7
:1043E0004FEA0B3343EA14534FEA0432019C43EA89
:1043F0000603A4F10C040294009CCDE900B400F083
:10440000B0F903B0BDE8F08F00200146F9E72DE9CF
:10441000F04D81EA030404F0004B21F000451446FE
:104420004FF0000A23F0004150EA050220D054EA80
:1044300001021DD0C5F30A570246C5F31303C1F3A9
:104440001300C1F30A5640F4801543F48013A7EB20
:104450000608101BD64608F2FD3873EB050002D3A0
:1044600008F1010801E092185B41B8F1000F03DA8E
:1044700000200146BDE8F08D00204FF48011064673
:1044800084460EE0171B73EB050705D3121B63EB85
:10449000050306434CEA010C49084FEA3000921824
:1044A0005B4150EA0107EDD152EA030012D082EAE3
:1044B000040083EA0501084305D0101BAB4106D276
:1044C0000122002306E000224FF0004302E06FF0DB
:1044D000010253101AEB06004CEB085110EB0A00D6
:1044E00041EB0B01BDE8F04D00F02CB9C10F80EAA3
:1044F000E0700844CA079623002100F0F5B896231F
:104500000022114600F0F0B80EB5C10F80EAE0704D
:104510000844CA07002140F233438DE80E000A46E2
:104520000B4600F01EF903B000BD0EB540F233415A
:1045300002910021CDE900110A460B4600F011F965
:1045400003B000BD00F0004220F00040C10DC0F3F8
:10455000160040F400007F2901DA002070479629F8
:1045600003DCC1F19601C84001E096398840002A79
:10457000F4D04042704770B5C1F30A5201F00045D3
:104580000024C1F3130140F2FF3341F480119A4239
:1045900001DA002070BD40F233439A42A2F2334266
:1045A00003DC524200F075F800E090402C43F1D05B
:1045B000404270BDC1F30A5210B5C1F3130140F27D
:1045C000FF3341F480119A4201DA002010BD40F21D
:1045D00033439A42A2F2334203DC524200F059F8CC
:1045E00010BD904010BD00F0004230F000400AD0F5
:1045F000C10D01F56071C0F3160042EA0151C20815
:1046000040071143704700200146704730B5041E33
:1046100071F1000404DB4FF00044404264EB0101FF
:10462000141E73F1000405DB1C464FF00043524298
:1046300063EB04038B4208BF824230BD01F00043AC
:1046400030B421F0004150EA010206D00A0DA2F573
:104650006072C1F31301002A02DC30BC00207047F5
:10466000440F44EAC104C100E01830BC00EBC25062
:1046700000F031B8202A04DB203A00FA02F10020D1
:1046800070479140C2F1200320FA03F31943904090
:104690007047202A04DB203A21FA02F000217047FB
:1046A00021FA02F3D040C2F120029140084319469A
:1046B0007047202A06DBCB17203A41FA02F043EA82
:1046C000E07306E041FA02F3D040C2F120029140CB
:1046D0000843194670470029A8BF7047401C49008D
:1046E00008BF20F00100704710B4B0FA80FC00FA57
:1046F0000CF050EA010404BF10BC704749B1CCF182
:10470000200421FA04F411FA0CF118BF012121430D
:104710000843A3EB0C01CB1D4FEA00614FEA1020C8
:1047200042BF002010BC704700EBC350104400296A
:10473000A4BF10BC7047401C490008BF20F0010016
:1047400010BC704710B5141E73F1000408DA401C49
:1047500041F1000192185B411A4301D120F00100A0
:1047600010BD2DE9F04D92469B4611B1B1FA81F290
:1047700002E0B0FA80F220329046FFF77BFF044659
:104780000F4640EA0A0041EA0B0153465A460843E5
:1047900013D0114653EA010019D0C8F14002504627
:1047A000FFF777FF05460E46504659464246FFF74B
:1047B00061FF084305D0012004E020463946BDE8EA
:1047C000F08D0020054346EAE0762C4337430A98F3
:1047D0006305E40AA0EB08000022FD0A44EA4754FE
:1047E0000A3002D500200146E9E7010510196941A8
:1047F000DDE9084500196941BDE8F04DA2E7000078
:10480000064C074D06E0E06840F0010394E807001D
:1048100098471034AC42F6D3FBF76CFCB05000085C
:10482000D050000870B58C1810F8015B15F0070324
:1048300001D110F8013B2A1106D110F8012B03E039
:1048400010F8016B01F8016B5B1EF9D12B0705D441
:104850000023521E0DD401F8013BFAE710F8013B8A
:10486000CB1A921C03E013F8015B01F8015B521EA6
:10487000F9D5A142D8D3002070BD02E008C8121FAC
:1048800008C1002AFAD170477047002001E001C139
:10489000121F002AFBD1704700000000000000003A
:1048A000002F000000000700070000147F147F1491
:1048B00000242A7F2A120062640813230036495517
:1048C000225000000503000000001C2241000000EF
:1048D00041221C000014083E08140008083E080885
:1048E000000000A0600000080808080800006060E0
:1048F0000000002010080402003E5149453E00001F
:10490000427F4000004261514946002141454B3100
:10491000001814127F10002745454539003C4A49CC
:10492000493000017109050300364949493600063E
:104930004949291E000036360000000056360000A6
:104940000008142241000014141414140000412221
:10495000140800020151090600324959513E007CF9
:104960001211127C007F49494936003E41414122E3
:10497000007F4141221C007F49494941007F0909CC
:104980000901003E4149497A007F0808087F00007C
:10499000417F4100002040413F01007F0814224137
:1049A000007F40404040007F020C027F007F0408EF
:1049B000107F003E4141413E007F09090906003E4B
:1049C0004151215E007F0919294600464949493174
:1049D0000001017F0101003F4040403F001F204097
:1049E000201F003F4038403F006314081463000755
:1049F0000870080700615149454300007F414100AC
:104A000000552A552A55000041417F00000402014B
:104A10000204004040404040000001020400002029
:104A200054545478007F4844443800384444442067
:104A300000384444487F00385454541800087E0914
:104A400001020018A4A4A47C007F080404780000DC
:104A5000447D4000004080847D00007F1028440099
:104A60000000417F4000007C04180478007C0804AA
:104A7000047800384444443800FC242424180018E6
:104A8000242418FC007C08040408004854545420D2
:104A900000043F444020003C4040207C001C20405B
:104AA000201C003C4030403C004428102844001C9E
:104AB000A0A0A07C004464544C4414141414141496
:104AC00000000000000000000000000000000000E6
:104AD000000000F80000000000000033300000007B
:104AE00000100C06100C0600000000000000000082
:104AF00040C07840C0784000043F04043F040400F4
:104B0000007088FC08300000001820FF211E000003
:104B1000F008F000E018000000211C031E211E0018
:104B200000F00888700000001E212324192721109E
:104B300010160E0000000000000000000000000041
:104B4000000000E0180402000000000718204000E8
:104B500000020418E00000000040201807000000D8
:104B6000404080F0804040000202010F010202003C
:104B7000000000F0000000000101011F0101010020
:104B8000000000000000000080B070000000000085
:104B9000000000000000000000010101010101010E
:104BA00000000000000000000030300000000000A5
:104BB000000000008060180400601806010000007A
:104BC00000E010080810E000000F102020100F0077
:104BD000001010F8000000000020203F20200000FE
:104BE0000070080808887000003028242221300056
:104BF00000300888884830000018202020110E005E
:104C00000000C02010F8000000070424243F240006
:104C100000F80888880808000019212020110E00DB
:104C200000E0108888180000000F112020110E00ED
:104C300000380808C83808000000003F00000000E5
:104C40000070880808887000001C222121221C00A6
:104C500000E010080810E0000000312222110F00CF
:104C6000000000C0C0000000000000303000000064
:104C700000000080000000000000806000000000D4
:104C800000008040201008000001020408102000ED
:104C90004040404040404000040404040404040038
:104CA00000081020408000000020100804020100CD
:104CB000007048080808F0000000003036010000CD
:104CC000C030C828E810E0000718272423140B0080
:104CD0000000C038E0000000203C230202273820FA
:104CE00008F8888888700000203F202020110E00DE
:104CF000C0300808080838000718202020100800D5
:104D000008F808080810E000203F202020100F00BD
:104D100008F88888E8081000203F20202320180089
:104D200008F88888E8081000203F200003000000F1
:104D3000C03008080838000007182020221E020092
:104D400008F808000008F808203F210101213F2051
:104D5000000808F8080800000020203F202000007C
:104D600000000808F8080800C08080807F0000006C
:104D700008F888C028180800203F200126382000A5
:104D800008F8080000000000203F2020202030000C
:104D900008F8F800F8F80800203F003F003F200026
:104DA00008F830C00008F808203F200007183F002E
:104DB000E01008080810E0000F10202020100F005D
:104DC00008F808080808F000203F21010101000050
:104DD000E01008080810E0000F18242438504F0095
:104DE00008F8888888887000203F2000030C302055
:104DF00000708808080838000038202121221C0093
:104E0000180808F8080818000000203F20000000DB
:104E100008F808000008F808001F202020201F00C4
:104E20000878880000C83808000007380E01000024
:104E3000F80800F80008F800033C0700073C0300EE
:104E4000081868808068180820302C03032C302054
:104E50000838C800C83808000000203F20000000C3
:104E600010080808C838080020382621202018001B
:104E7000000000FE020202000000007F40404000EF
:104E8000000C30C000000000000000010638C00027
:104E900000020202FE000000004040407F000000CF
:104EA00000000402020204000000000000000000F4
:104EB00000000000000000008080808080808080F2
:104EC00000020204000000000000000000000000DA
:104ED00000008080808000000019242222223F20D0
:104EE00008F8008080000000003F112020110E0013
:104EF0000000008080800000000E112020201100A2
:104F0000000000808088F800000E112020103F2053
:104F10000000808080800000001F222222221300D7
:104F2000008080F0888888180020203F2020000022
:104F30000000808080808000006B949494936000D7
:104F400008F8008080800000203F210000203F20E2
:104F500000809898000000000020203F20200000E2
:104F6000000000809898000000C08080807F0000D2
:104F700008F8000080808000203F24022D302000AF
:104F8000000808F8000000000020203F202000005A
:104F90008080808080808000203F20003F20003F74
:104FA0008080008080800000203F210000203F2082
:104FB0000000808080800000001F202020201F0033
:104FC000808000808000000080FFA12020110E0062
:104FD0000000008080808000000E112020A0FF8053
:104FE000808080008080800020203F212000010000
:104FF0000000808080808000003324242424190055
:10500000008080E0808000000000001F2020000061
:105010008080000000808000001F202020103F20A2
:10502000808080000080808000010E300806010032
:1050300080800080008080800F300C030C300F00D7
:1050400000808000808080000020312E0E31200002
:10505000808080000080808080818E701806010032
:1050600000808080808080000021302C2221300050
:1050700000000000807C020200000000003F404071
:1050800000000000FF00000000000000FF00000022
:105090000002027C800000000040403F0000000051
:1050A00000060101020204040000000000000000EC
:1050B000D0500008000000203009000024480008FB
:1050C000A052000830090020500F00008A48000854
:1050D000012C02546184A24A0400091A010203044B
:1050E00006070809072239C49A9989C01BF01001E4
:1050F0002AFF050215F01B0F04012AFF0502130FFA
:1051000018094040405F55555575041A5F0C091148
:1051100021080C11200F094989790909090F201F5D
:10512000112FFE02424ACA4A0304134202FE000E35
:1051300014FF40504C4340404F50505C40FF1BF820
:1051400088012AFF050215F81B1F08012A7F200B82
:10515000109F80E23B808201000916E2A2928A86BB
:10516000828080041840807F172424A4FEA3221B81
:1051700022CCAA011415080601FF2B010401051118
:10518000FF0202025808101010FF109008C302110D
:1051900008080F100444827F01808040432C1028AF
:1051A0004681A018094040484848C8784F06051570
:1051B000484840400009150312122222528A063C38
:1051C000106080BA19040B11C030FB1E40404340F0
:1051D0007F061C7F424106094FC02941080B111070
:1051E000D030FF30D0121C10101F3D080402019E69
:1051F0000D1101020408211116FE222222FE0712BF
:10520000FE828292A29E100880601F0242827F0F5F
:1052100011FF402F102C438011000B1490884C5725
:10522000A42454548C84180801018042221A074493
:105230001D423E01018AF9E1000D14E4242CB4253D
:105240002624B42C24E404180AFF02011E121212B0
:105250001E418601163233DA3108DA3008E918E9DE
:1052600030690C32329A3414092244091A54A910B4
:10527000E95C693809126CE948E964092280691817
:10528000A95402FF3501FF01FF01966A01082C02B3
:1052900003040400090006070809020406080000C8
:04000005080000ED02
:00000001FF
